:100000000C9434000C9451000C9451000C94510049
:100010000C9451000C9451000C9451000C9451001C
:100020000C9451000C9451000C9451000C943F011D
:100030000C9451000C9451000C9451000C945100FC
:100040000C9451000C9451000C9451000C945100EC
:100050000C9451000C9451000C9451000C945100DC
:100060000C9451000C94510011241FBECFEFD8E026
:10007000DEBFCDBF11E0A0E0B1E0E6EDF3E002C0ED
:1000800005900D92AC30B107D9F721E0ACE0B1E0BA
:1000900001C01D92AB31B207E1F70E9453000C94EE
:1000A000E9010C9400000E94AD010E94630161E02F
:1000B00085E00E94B5012FE38DE093E02150804060
:1000C0009040E1F700C0000060E085E00E94B501CB
:1000D0000E9427010E94B4000E94810083EC99E0F5
:1000E0000197F1F700C000000E946C0183EC99E0D9
:1000F0000197F1F700C000000E946C010E94890086
:10010000EDCF10920E0181E080931A011092190137
:10011000089580910C0190910D01449684369105CB
:1001200088F010920D0110920C0180910E01885000
:10013000853068F410921A0181E0809319011092C1
:100140000E01089590930D0180930C01089581E0B4
:1001500080931A01F1CF80911A01089580910E01C8
:100160008F5F80930E0108958FB78F778FBF85B70C
:10017000877F85BFA895E0E6F0E080818861808375
:100180008AE080838FB780688FBF089561E083E045
:100190000E94B50180910F0190911001C296909339
:1001A000100180930F0140910F01509110019A01AD
:1001B0003695279536952795ABE7B4E10E94DA018D
:1001C0009695879564E6689F9001699F300D11248C
:1001D0004217530761F080911901811102C0A8955F
:1001E0002BC01092190181E080931A0125C0409123
:1001F0000F01509110019A01369527953695279554
:10020000ABE7B4E10E94DA019695879564E6689FB2
:100210009001699F300D11244217530769F48091B2
:10022000190181110EC01092190181E080931A0109
:100230001092100110920F0160E083E00E94B5015E
:1002400008950E94AB008111EECFA895ECCF1092DB
:10025000840010928500E1E8F0E08081886080836E
:1002600081E390E09093890080938800AFE6B0E04E
:100270008C9182608C9380818560808308951F9229
:100280000F920FB60F9211242F933F934F935F93CA
:100290006F937F938F939F93AF93BF93EF93FF934E
:1002A0000E94C600FF91EF91BF91AF919F918F91F6
:1002B0007F916F915F914F913F912F910F900FBE62
:1002C0000F901F9018951092150110921601109220
:1002D0001701109218010895809111019091120157
:1002E000A0911301B09114010A96A11DB11D809334
:1002F000110190931201A0931301B0931401843F54
:100300009140A105B10518F40E94AE00089561E086
:100310008091150190911601A0911701B0911801DB
:10032000892B8A2B8B2B09F060E0862F90E0B0E0C0
:10033000A0E08093150190931601A0931701B0934C
:10034000180180E00E94B501109211011092120173
:100350001092130110921401D7CFE0910401F09193
:10036000050181818F6781830895E0910401F091F7
:100370000501218130E0082E02C0359527950A94A9
:10038000E2F720FF02C0623008F0089521E030E07B
:10039000082E02C0220F331F0A94E2F720959281A3
:1003A000292370E002C0660F771F8A95E2F7622B5F
:1003B0006283EBCFA29FB001B39FC001A39F700DDA
:1003C000811D1124911DB29F700D811D1124911D5D
:0603D0000895F894FFCF30
:0C03D600230000002600000029000000A9
:00000001FF
