:100000000C9434000C9451000C9451000C94510049
:100010000C9451000C9451000C9451000C9451001C
:100020000C9451000C9451000C9451000C9412014A
:100030000C9451000C9451000C9451000C945100FC
:100040000C9451000C9451000C9451000C945100EC
:100050000C9451000C9451000C9451000C945100DC
:100060000C9451000C94510011241FBECFEFD8E026
:10007000DEBFCDBF11E0A0E0B1E0E6E3F4E002C0F6
:1000800005900D92AC30B107D9F711E0ACE0B1E0CA
:1000900001C01D92AB31B107E1F70E9453000C94EF
:1000A00019020C940000EF92FF920F931F93CF93CD
:1000B000DF930E94B8010E9436010E94A8000E94AE
:1000C00076000E94FA00C0E0D0E004EC19E0EE24D3
:1000D000FF24C8010197F1F70E9475012A96C431E7
:1000E000D105B8F30E947E00E701F3CF10920C0116
:1000F00081E080931A0110921901089580910D01F9
:1001000090910E01449690930E0180930D018436D8
:100110009105A0F010920E0110920D0180910C013A
:100120008850853018F410921A0103C081E0809342
:100130001A0181E08093190110920C0108958091B9
:100140001A01089580910C018F5F80930C0108952E
:10015000AFE5B0E08C918F778C93E4E5F0E080819F
:10016000877F8083A895E0E6F0E0808188618083C6
:100170008AE080838C9180688C93089580910F0130
:1001800090911001C2969093100180930F0180917D
:100190000F019091100164E670E00E940502892B26
:1001A00061F080911901882311F4A89508951092A7
:1001B000190181E080931A01089580910F019091B7
:1001C000100164E670E00E940502892B91F4809191
:1001D0001901882329F00E949F00882309F4A8951B
:1001E0001092190181E080931A011092100110926F
:1001F0000F0108951092840010928500A1E8B0E0EC
:100200008C9188608C9381E390E090938900809337
:100210008800EFE6F0E08081826080838C918560C9
:100220008C9308951F920F920FB60F9211242F9363
:100230003F934F935F936F937F938F939F93AF936E
:10024000BF93EF93FF930E94BE00FF91EF91BF9188
:10025000AF919F918F917F916F915F914F913F915E
:100260002F910F900FBE0F901F90189510921501AF
:100270001092160110921701109218010895DF9341
:10028000CF9300D000D0CDB7DEB719821A821B827F
:100290001C8228EE33E040E050E00E94E6019B0122
:1002A000AC0189819A81AB81BC8182179307A40735
:1002B000B507A0F489819A81AB81BC810196A11D0B
:1002C000B11D89839A83AB83BC8389819A81AB8179
:1002D000BC8182179307A407B50760F30F900F90B6
:1002E0000F900F90CF91DF9108958091110190911F
:1002F0001201A0911301B09114010A96A11DB11D24
:100300008093110190931201A0931301B0931401F3
:10031000845F9140A040B04040F120E030E040E0F8
:1003200050E08091150190911601A0911701B091B4
:1003300018010097A105B10521F421E030E040E06B
:1003400050E020931501309316014093170150930C
:10035000180180E0622F0E94C001109211011092DA
:10036000120110921301109214010E94A20008952C
:10037000E0910401F091050181818F6781830895E7
:10038000E0910401F0910501482F818190E0042E55
:1003900002C0959587950A94E2F780FF16C06230F7
:1003A000A0F481E090E0042E02C0880F991F0A9407
:1003B000E2F7809522818223262F30E002C0220FAF
:1003C000331F4A95E2F7822B82830895629FD00102
:1003D000739FF001829FE00DF11D649FE00DF11D00
:1003E000929FF00D839FF00D749FF00D659FF00DAF
:1003F0009927729FB00DE11DF91F639FB00DE11D9C
:10040000F91FBD01CF0111240895AA1BBB1B51E1A7
:1004100007C0AA1FBB1FA617B70710F0A61BB70B74
:10042000881F991F5A95A9F780959095BC01CD0119
:060430000895F894FFCFCF
:0C04360023000000260000002900000048
:00000001FF
