:100000000C9434000C9451000C9451000C94510049
:100010000C9451000C9451000C9451000C9451001C
:100020000C9451000C9451000C9451000C944F010D
:100030000C9451000C9451000C9451000C945100FC
:100040000C9451000C9451000C9451000C945100EC
:100050000C9451000C9451000C9451000C945100DC
:100060000C9451000C94510011241FBECFEFD8E026
:10007000DEBFCDBF11E0A0E0B1E0E8E7F4E002C0F0
:1000800005900D92AC30B107D9F721E0ACE0B1E0BA
:1000900001C01D92AD31B207E1F70E9453000C94EC
:1000A0003A020C9400000E94F3010E94730161E087
:1000B00081E00E94FB012FE986E891E02150804019
:1000C0009040E1F700C0000060E081E00E94FB0189
:1000D0000E94CE000E9491000E94370181EE94E0C0
:1000E0000197F1F700C000000E947C0181EE94E0CE
:1000F0000197F1F700C000000E947C0181EE94E0BE
:100100000197F1F700C000000E947C0181EE94E0AD
:100110000197F1F700C000000E947C010E949F003F
:10012000DDCF10920D0110920C011092180181E0A8
:1001300080931B011092190180931A0108958091F8
:100140000C0190910D01449690930D0180930C0148
:10015000209119012F5F2093190184369105A0F099
:1001600010920D0110920C0180911801883038F026
:10017000809118018D3018F410921B0103C081E0AA
:1001800080931B0110921801089580911B0108951E
:10019000809118018F5F8093180108958FB78F7732
:1001A0008FBF84B7877F84BFA895E0E6F0E08081A9
:1001B000886180838AE080838FB780688FBF0895CD
:1001C00080910E0190910F01C29690930F01809340
:1001D0000E0140910E0150910F019A01369527951D
:1001E00036952795ABE7B4E10E9420029695879556
:1001F00064E6689F9001699F300D112442175307F0
:1002000021F080911901823031F140910E0150911D
:100210000F019A013695279536952795ABE7B4E1FE
:100220000E9420029695879564E6689F9001699FD9
:10023000300D11244217530769F48091190184305D
:1002400080F41092190181E080931B0110920F013C
:1002500010920E010895809118018530B1F6A8958D
:10026000D4CF0E94C5008111ECCFA895EACF10929F
:10027000840010928500E1E8F0E08081886080834E
:1002800081E390E09093890080938800AFE6B0E02E
:100290008C9182608C9380818560808308951F9209
:1002A0000F920FB60F9211242F933F934F935F93AA
:1002B0006F937F938F939F93AF93BF93EF93FF932E
:1002C0000E94E000FF91EF91BF91AF919F918F91BC
:1002D0007F916F915F914F913F912F910F900FBE42
:1002E0000F901F9018951092140110921501109202
:1002F000160110921701089580911001909111013B
:10030000A0911201B09113010596A11DB11D80931A
:10031000100190931101A0931201B0931301843F37
:100320009140A105B10518F40E94C800089561E04C
:100330008091140190911501A0911601B0911701BF
:10034000892B8A2B8B2B09F060E0862F90E0B0E0A0
:10035000A0E08093140190931501A0931601B0932F
:10036000170180E00E94FB01109210011092110110
:100370001092120110921301D7CFCF93DF9300D0C8
:1003800000D0CDB7DEB79B01AC0119821A821B8267
:100390001C82A8EEB3E00E942F02AB01BC01898150
:1003A0009A81AB81BC8184179507A607B707A0F493
:1003B00089819A81AB81BC810196A11DB11D898380
:1003C0009A83AB83BC8389819A81AB81BC8184177A
:1003D0009507A607B70760F30F900F900F900F9047
:1003E000DF91CF910895E0910401F09105018181A1
:1003F0008B6081830895E0910401F09105012181D2
:1004000030E0082E02C0359527950A94E2F720FFC8
:1004100002C0623008F0089521E030E0082E02C0EA
:10042000220F331F0A94E2F720959281292370E06E
:1004300002C0660F771F8A95E2F7622B6283EBCFCB
:10044000A29FB001B39FC001A39F700D811D112415
:10045000911DB29F700D811D1124911D08950E9460
:100460002002A59F900DB49F900DA49F800D911D1B
:0804700011240895F894FFCF58
:0C04780023000000260000002900000006
:00000001FF
