:100000000C9434000C9451000C9451000C94510049
:100010000C9451000C9451000C9451000C9451001C
:100020000C9451000C9451000C9451000C943F011D
:100030000C9451000C9451000C9451000C945100FC
:100040000C9451000C9451000C9451000C945100EC
:100050000C9451000C9451000C9451000C945100DC
:100060000C9451000C94510011241FBECFEFD8E026
:10007000DEBFCDBF11E0A0E0B1E0E2EDF3E002C0F1
:1000800005900D92AC30B107D9F721E0ACE0B1E0BA
:1000900001C01D92AD31B207E1F70E9453000C94EC
:1000A000E7010C9400000E94AB010E94630161E033
:1000B00081E00E94B3012FE986E891E02150804061
:1000C0009040E1F700C0000060E081E00E94B301D1
:1000D0000E94BE000E9481000E94270183EC99E0EB
:1000E0000197F1F700C000000E946C0183EC99E0D9
:1000F0000197F1F700C000000E946C010E948F0080
:10010000EDCF10920D0110920C011092180181E0B8
:1001100080931B011092190180931A010895809118
:100120000C0190910D01449690930D0180930C0168
:10013000209119012F5F2093190184369105A0F0B9
:1001400010920D0110920C0180911801883038F046
:10015000809118018D3018F410921B0103C081E0CA
:1001600080931B0110921801089580911B0108953E
:10017000809118018F5F8093180108958FB78F7752
:100180008FBF84B7877F84BFA895E0E6F0E08081C9
:10019000886180838AE080838FB780688FBF0895ED
:1001A00080910E0190910F01C29690930F01809360
:1001B0000E0140910E0150910F019A01369527953D
:1001C00036952795ABE7B4E10E94D80196958795BF
:1001D00064E6689F9001699F300D11244217530710
:1001E00021F080911901823031F140910E0150913E
:1001F0000F019A013695279536952795ABE7B4E11F
:100200000E94D8019695879564E6689F9001699F42
:10021000300D11244217530769F48091190184307D
:1002200080F41092190181E080931B0110920F015C
:1002300010920E010895809118018530B1F6A895AD
:10024000D4CF0E94B5008111ECCFA895EACF1092CF
:10025000840010928500E1E8F0E08081886080836E
:1002600081E390E09093890080938800AFE6B0E04E
:100270008C9182608C9380818560808308951F9229
:100280000F920FB60F9211242F933F934F935F93CA
:100290006F937F938F939F93AF93BF93EF93FF934E
:1002A0000E94D000FF91EF91BF91AF919F918F91EC
:1002B0007F916F915F914F913F912F910F900FBE62
:1002C0000F901F9018951092140110921501109222
:1002D000160110921701089580911001909111015B
:1002E000A0911201B09113010A96A11DB11D809336
:1002F000100190931101A0931201B0931301843F58
:100300009140A105B10508F4089561E080911401C0
:1003100090911501A0911601B0911701892B8A2B9C
:100320008B2B09F060E0862F90E0B0E0A0E0809396
:10033000140190931501A0931601B093170180E06A
:100340000E94B3011092100110921101109212013B
:1003500010921301D9CFE0910401F0910501818140
:100360008B6081830895E0910401F0910501218162
:1003700030E0082E02C0359527950A94E2F720FF59
:1003800002C0623008F0089521E030E0082E02C07B
:10039000220F331F0A94E2F720959281292370E0FF
:1003A00002C0660F771F8A95E2F7622B6283EBCF5C
:1003B000A29FB001B39FC001A39F700D811D1124A6
:1003C000911DB29F700D811D1124911D0895F89407
:0203D000FFCF5D
:0C03D200230000002600000029000000AD
:00000001FF
